{
  "abi": [
    {
      "inputs": [
        {
          "internalType": "address",
          "name": "permit2",
          "type": "address"
        }
      ],
      "stateMutability": "nonpayable",
      "type": "constructor"
    },
    {
      "inputs": [],
      "name": "InvalidContractSignature",
      "type": "error"
    },
    {
      "inputs": [],
      "name": "InvalidNewAddress",
      "type": "error"
    },
    {
      "inputs": [],
      "name": "InvalidSignature",
      "type": "error"
    },
    {
      "inputs": [],
      "name": "InvalidSignatureLength",
      "type": "error"
    },
    {
      "inputs": [],
      "name": "InvalidSigner",
      "type": "error"
    },
    {
      "inputs": [],
      "name": "InvalidSignerLength",
      "type": "error"
    },
    {
      "inputs": [],
      "name": "InvalidThreshold",
      "type": "error"
    },
    {
      "inputs": [],
      "name": "NotEnoughSignatures",
      "type": "error"
    },
    {
      "inputs": [],
      "name": "NotSorted",
      "type": "error"
    },
    {
      "inputs": [],
      "name": "SignatureExpired",
      "type": "error"
    },
    {
      "inputs": [],
      "name": "DOMAIN_SEPARATOR",
      "outputs": [
        {
          "internalType": "bytes32",
          "name": "",
          "type": "bytes32"
        }
      ],
      "stateMutability": "view",
      "type": "function"
    },
    {
      "inputs": [
        {
          "components": [
            {
              "internalType": "bytes",
              "name": "sig",
              "type": "bytes"
            },
            {
              "internalType": "address",
              "name": "addr",
              "type": "address"
            },
            {
              "internalType": "uint256",
              "name": "sigDeadline",
              "type": "uint256"
            }
          ],
          "internalType": "struct TokenBackups.Pal[]",
          "name": "pals",
          "type": "tuple[]"
        },
        {
          "internalType": "bytes",
          "name": "backup",
          "type": "bytes"
        },
        {
          "components": [
            {
              "components": [
                {
                  "internalType": "address",
                  "name": "token",
                  "type": "address"
                },
                {
                  "internalType": "uint256",
                  "name": "amount",
                  "type": "uint256"
                }
              ],
              "internalType": "struct ISignatureTransfer.TokenPermissions[]",
              "name": "permitted",
              "type": "tuple[]"
            },
            {
              "internalType": "uint256",
              "name": "nonce",
              "type": "uint256"
            },
            {
              "internalType": "uint256",
              "name": "deadline",
              "type": "uint256"
            }
          ],
          "internalType": "struct ISignatureTransfer.PermitBatchTransferFrom",
          "name": "permitData",
          "type": "tuple"
        },
        {
          "components": [
            {
              "internalType": "address",
              "name": "oldAddress",
              "type": "address"
            },
            {
              "components": [
                {
                  "internalType": "address",
                  "name": "to",
                  "type": "address"
                },
                {
                  "internalType": "uint256",
                  "name": "requestedAmount",
                  "type": "uint256"
                }
              ],
              "internalType": "struct ISignatureTransfer.SignatureTransferDetails[]",
              "name": "transferDetails",
              "type": "tuple[]"
            }
          ],
          "internalType": "struct RecoveryInfo",
          "name": "recoveryInfo",
          "type": "tuple"
        },
        {
          "components": [
            {
              "internalType": "address[]",
              "name": "signers",
              "type": "address[]"
            },
            {
              "internalType": "uint256",
              "name": "threshold",
              "type": "uint256"
            }
          ],
          "internalType": "struct BackupWitness",
          "name": "witnessData",
          "type": "tuple"
        }
      ],
      "name": "recover",
      "outputs": [],
      "stateMutability": "nonpayable",
      "type": "function"
    }
  ],
  "bytecode": {
    "object": "0x60e034610132576001600160401b0390601f61134238819003918201601f19168301918483118484101761011c5780849260209460405283398101031261013257516001600160a01b03811690819003610132574660a05260405160208101907f8b73c3c69bb8fe3d512ecc4cf759cc79239f7b179b0ffacaa9a75d522b39400f82527f2947a2590b66d2ae1f2af4a3407d9c2aec946348be44d3fd851c0e410d0ddf39604082015260a06060820152600160c0820152603160f81b60e08201524660808201523060a082015260e081526101008101938185109085111761011c578360405251902060805260c05261120a9081610138823960805181610e6a015260a05181610e43015260c0518181816103bc015261052c0152f35b634e487b7160e01b600052604160045260246000fd5b600080fdfe6080604052600436101561001257600080fd5b6000803560e01c80633644e51514610e1b5763c85a765e1461003357600080fd5b346106485760a0366003190112610648576001600160401b036004351161064857366023600435011215610648576001600160401b036004356004013511610648573660246004356004013560051b600435010111610648576001600160401b036024351161064857366023602435011215610648576001600160401b036024356004013511610648573660248035600401358135010111610648576001600160401b036044351161064857606060443536036003190112610648576001600160401b036064351161064857604060643536036003190112610648576001600160401b036084351161064857604060843536036003190112610648576024608435013515610e095761014a600460843501806110ca565b90506024608435013511610df757602460843501356004356004013503610de55780805b60043560040135821061064b5782602219606435360301602460643501351215610648576001600160401b036064356024810135016004013511610648576004602460643581810135019182013560061b3603910113610648576101d6606435600401610fc3565b6040516101e281610f3b565b608435600401356001600160401b0381116105f55736602382608435010112156105f557610217600482608435010135610fdc565b906102256040519283610fa2565b6084358101600481013580845260208401913660059290921b01602401116105f1576024826084350101905b6084358301600481013560051b01602401821061062c575050508152602460843501356020820152610281611007565b602081519101209080516040516020810191826020825191920190885b81811061060d57505050819003601f198101825260209291906102c19082610fa2565b519020910151604051916020830193845260408301526060820152606081526102e981610f6c565b519020906102f5611007565b604051908160608101106001600160401b036060840111176105f95760356103ba9160608401604052602e84527f546f6b656e5065726d697373696f6e73286164647265737320746f6b656e2c7560208501526d696e7432353620616d6f756e742960901b604085015260405193849174546f6b656e4261636b757073207769746e6573732960581b60208401526103968151809260208787019101611066565b82016103ab8251809360208785019101611066565b01036015810184520182610fa2565b7f00000000000000000000000000000000000000000000000000000000000000006001600160a01b03163b156105f5576040519263fe8ec1a760e01b845260c06004850152604435600401356022196044353603018112156105f157604435016001600160401b036004820135116105f157600481013560061b360360248201136105f157928491869394606060c48501526101248401600482013590526101448401906024810190865b600482013581106105c0575050506024604480358281013560e488015201356101048601526003198583030185820152600460643580830135019081013583526020909201939101855b606435602481013501600401358110610597575050918394956020926105279460018060a01b03166044870152606486015260031985830301608486015261050281518092818552858086019101611066565b601f01601f191601838103601c0160a4850152016004602480359182013591016110a9565b0381837f00000000000000000000000000000000000000000000000000000000000000006001600160a01b03165af1801561058c57610564575080f35b6001600160401b0381116105785760405280f35b634e487b7160e01b82526041600452602482fd5b6040513d84823e3d90fd5b92945095945091604080826105ae6001948a611089565b019601910191869391889596936104af565b9282959897506001919496506040816105dc8293600496611089565b01950192018996979492915092889593610465565b8580fd5b8380fd5b634e487b7160e01b85526041600452602485fd5b82516001600160a01b031684526020938401939092019160010161029e565b60208060249261063b85610ff3565b8152019201919050610251565b80fd5b909160821960043536030160248460051b60043501013512156106485742606460248560051b60043501013560043501013510610dd357604060643536036003190112610648576040519161069f83610f3b565b6106ad606435600401610ff3565b83526001600160401b036024606435013511610dcf57366064356024810135016023011215610dcf576106eb60643560248101350160040135610fdc565b6106f86040519182610fa2565b6004602460643581810135019182013580845260208401923660069290921b01909101116105f55760248060643501356064350101905b606435602481810135909101600481013560061b01018210610d93575050602084015261075a611124565b60405161080960208201926c0a4cac6deeccae4f292dcccde5609b1b8452721859191c995cdcc81bdb191059191c995cdccb606a1b602d840152731d5a5b9d0c8d4d881cda59d11958591b1a5b994b60621b60408401527f5369676e61747572655472616e7366657244657461696c735b5d2064657461696054840152626c732960e81b60748401528281516107f98160779460208686019101611066565b8101036057810184520182610fa2565b51902091602060018060a01b038551169401519485519361082985610fdc565b946108376040519687610fa2565b808652610846601f1991610fdc565b01366020870137825b87518110156108c057806108666108bb928a611194565b5161086f611124565b6020815191012090602060018060a01b03825116910151604051916020830193845260408301526060820152606081526108a881610f6c565b5190206108b58289611194565b526110ff565b61084f565b5092955092939093604051602081018181936020815193910192895b818110610d7a5750506108f8925003601f198101835282610fa2565b519020906040519260208401526040830152606460248460051b60043501013560043501013560608301526080820152608081528060a08101106001600160401b0360a083011117610d665760a08101604052602081519101209261096e604460248460051b6004350101356004350101610fc3565b93600435600584901b8101602490810135909101368190036042190191013512156105f5576001600160401b036024600585901b6004359081018201350180820135010135116105f5576024600584901b6004359081018201350180820135019081013536036044909101136105f5576109e6610e3e565b9060405190602082019261190160f01b84526022830152604290818301528152610a0f81610f6c565b519020843b610c82576024600584901b6004359081018201350180820135010135604103610be457610a6160446024600586901b600435908101820135018082013501908101358101820191016111be565b906024600586901b600435908101820135018082013501013560401015610bd057602092869260809260ff6084602460058b901b600435908101820135019081013501013560f81c5b60405194855216868401526040830152606082015282805260015afa1561058c5782516001600160a01b03168015610bbe576001600160a01b03851603610b7d575b6001600160a01b039081169084161115610bac5781805b610b12600460843501806110ca565b9050811015610ba357610b2a600460843501806110ca565b821015610b8f576001600160a01b0386811691610b4c90600585901b01610fc3565b1614610b6057610b5b906110ff565b610b03565b509290915060015b15610b7d57610b7790916110ff565b9061016e565b604051632057875960e21b8152600490fd5b634e487b7160e01b83526032600452602483fd5b50929091610b68565b60405163ba50f91160e01b8152600490fd5b604051638baa579f60e01b8152600490fd5b634e487b7160e01b86526032600452602486fd5b6024600584901b6004359081018201350180820135010135604003610c7057610c2d60446024600586901b600435908101820135018082013501908101358101820191016111be565b6001600160ff1b038116919060ff81811c601b018110610c5c579260809260ff601b602097948b971c01610aaa565b634e487b7160e01b88526011600452602488fd5b604051634be6321b60e01b8152600490fd5b60408051630b135d3f60e11b81526004808201939093526024808201929092529160209183918291610cd191604480850192913560058b901b81018301350180830135019182013591016110a9565b03816001600160a01b0389165afa908115610d5b578491610d18575b506001600160e01b0319166374eca2c160e11b0115610aec57604051632c19a72f60e21b8152600490fd5b90506020813d602011610d53575b81610d3360209383610fa2565b810103126105f557516001600160e01b0319811681036105f55738610ced565b3d9150610d26565b6040513d86823e3d90fd5b634e487b7160e01b83526041600452602483fd5b84518352602094850194869450909201916001016108dc565b604082360312610dcb5760206040918251610dad81610f3b565b610db685610ff3565b8152828501358382015281520191019061072f565b8480fd5b5080fd5b604051630819bdcd60e01b8152600490fd5b60405163e246dc6360e01b8152600490fd5b60405163168f530160e01b8152600490fd5b60405163aabd5a0960e01b8152600490fd5b50346106485780600319360112610648576020610e36610e3e565b604051908152f35b6000467f000000000000000000000000000000000000000000000000000000000000000003610e8c57507f000000000000000000000000000000000000000000000000000000000000000090565b60405160208101917f8b73c3c69bb8fe3d512ecc4cf759cc79239f7b179b0ffacaa9a75d522b39400f83527f2947a2590b66d2ae1f2af4a3407d9c2aec946348be44d3fd851c0e410d0ddf39604083015260a06060830152600160c0830152603160f81b60e08301524660808301523060a083015260e082526101008201908282106001600160401b03831117610f27575060405251902090565b634e487b7160e01b81526041600452602490fd5b604081019081106001600160401b03821117610f5657604052565b634e487b7160e01b600052604160045260246000fd5b608081019081106001600160401b03821117610f5657604052565b606081019081106001600160401b03821117610f5657604052565b90601f801991011681019081106001600160401b03821117610f5657604052565b356001600160a01b0381168103610fd75790565b600080fd5b6001600160401b038111610f565760051b60200190565b35906001600160a01b0382168203610fd757565b6040516c0a8ded6cadc84c2c6d6eae0e65609b1b6020820152711859191c995cdcd6d7481cda59db995c9ccb60721b602d8201527175696e74323536207468726573686f6c642960701b603f8201526031815261106381610f87565b90565b60005b8381106110795750506000910152565b8181015183820152602001611069565b60209081906001600160a01b0361109f82610ff3565b1684520135910152565b908060209392818452848401376000828201840152601f01601f1916010190565b903590601e1981360301821215610fd757018035906001600160401b038211610fd757602001918160051b36038313610fd757565b600019811461110e5760010190565b634e487b7160e01b600052601160045260246000fd5b6040517f5369676e61747572655472616e7366657244657461696c73280000000000000060208201526a1859191c995cdcc81d1bcb60aa1b60398201527f75696e7432353620726571756573746564416d6f756e742900000000000000006044820152603c815261106381610f87565b80518210156111a85760209160051b010190565b634e487b7160e01b600052603260045260246000fd5b9190826040910312610fd757602082359201359056fea264697066735822122094ca100dd0cd54e2a6668b335caba3e7d6175bf26525937f08bee3ca042ab4e164736f6c63430008110033",
    "linkReferences": {}
  },
  "methodIdentifiers": {
    "DOMAIN_SEPARATOR()": "3644e515",
    "recover((bytes,address,uint256)[],bytes,((address,uint256)[],uint256,uint256),(address,(address,uint256)[]),(address[],uint256))": "c85a765e"
  },
  "id": 39
}